:020000040000FA
:0A00000002072475E68275A862224B
:10000B00020A5FED131313541FFEEB131313541F4C
:0F001B00FDEEC39D5008EF2EF8E4F60E80EC22A8
:10002B0002080FC2DED2DE2202068D75A20B43A19F
:10003B004053F8F343F801220208C0EF540FC454A5
:10004B00F0FEEF54F0C4540F4EFF543325E025E07F
:10005B00FEEF54CC1313543F4EFF545525E0FEEFE7
:07006B0054AAC3134EFF224B
:10007300020C4AE537242BF8E605372278283007A7
:1000830002782BE475F0011206570205DC2000EB21
:100093007F2ED2008018EF540F2490D43440D4FF25
:1000A30030040BEF24BFB41A0050032461FFE5387A
:1000B30060021538053BE53B7002053A30070D78C1
:1000C30028E475F001120657EF020645020B577438
:1000D30003D2078003E4C207F5378B288A29892ACC
:1000E300E4F538F53AF53BE53860077F201200B1B7
:1000F30080F57539FFC201C200C202C203C205C244
:1001030006C20812007FFF700D3007057F00120042
:10011300C2AF3BAE3A22B4255FC2D5C20412007F00
:10012300FF24D0B40A00501A75F00A783830D50588
:1001330008B6FF0106C6A426F620D5047002D20332
:1001430080D924CFB41A00EF5004C2E5D2040202CE
:10015300C2D20180C6D20080C0D20280BCD2D58078
:10016300BAD20580B47F201200B12002077401B512
:10017300380040F1120076FF1200B10200EAD20803
:10018300D2068095120076FB120076FA120076F9F9
:100193004A4B700679937A037BFF20022EE5386081
:1001A3002A7E008E827583001205F560060EEE65C9
:1001B3003970F0C2D5EBC0E0EAC0E0E9C0E0EE126E
:1001C3000309D0E0F9D0E0FAD0E0FB1205DCFF60D0
:1001D300AAEBC0E0EAC0E0E9C0E01200B1D0E0243D
:1001E30001F9D0E03400FAD0E0FBE5390460DCD556
:1001F30039D980877BFF7A037905D202809C7910F5
:1002030080027908C206C2088008D2D5790A800420
:10021300790AC2D5E539047002F539E4FAFDFEFF27
:10022300120076FC7B08200113120076FD7B103050
:10023300000A120076FE120076FF7B20EC3382D593
:1002430092D55013C3E43000069FFFE49EFEE420E2
:1002530001039DFDE49CFCE4CBF8C201EC700CCFE0
:10026300CECDCCE824F8F870F38017C3EF33FFEE5C
:1002730033FEED33FDEC33FCEB33FB994002FB0F14
:10028300D8E9EB300105F8D0E0C448B201C0E00A78
:10029300EC4D4E4F78207B0070C2EAB5390040BC6C
:1002A300C0E012030BD0F0D0E0200104C4C0E0C4CE
:1002B300B201C0F012009AD0F0D5F0EB0200EA12BE
:1002C300066701875302015801584C015442020545
:1002D3004F020D44020D49016D4302135501F746C8
:1002E30001F74501F74703B350015C2D01602E016F
:1002F300832B016423018120039C2A011C480000F5
:10030300017B3F3F3F00790AA2D520031430050942
:10031300B910020404B9080104A2D5200602500151
:10032300042002689202B538005034C0E07F2030C8
:1003330003197F30A20272067205500F120362C2C4
:1003430002C206C205C2087F30800F300503E9C030
:10035300E01200B1300503D0E0F9D0E0B538CC307D
:1003630005177F30B9100C1200B17F583004077F96
:10037300788003B908031200B13002057F2D020013
:10038300B17F202008F87F2B2006F322920280CF32
:10039300286E756C6C2900D2011200763001F8C208
:1003A30001783830D50108F602011C2D5043495815
:1003B3001200762403B405004001E49003AE9312C7
:1003C30000A2743A1200A2D2037538040202011289
:1003D3000A98D2AF120ACCE5534552700302046661
:1003E300E4F558C3E54D9464E54C64809480400D76
:1003F300054FE54F7002054EE4F54CF54DE54F64AE
:100403003C454E700D0551E55170020550E4F54E23
:10041300F54F752BFF752C0A752DFC85502E8551D4
:100423002F854E30854F31854C32854D337B007A95
:100433000079581200D27B007A007958752C157D0B
:10044300141209E4E4F552F553E56F6402456E7046
:100453000743E602F56EF56F056FE56F7002056EF3
:100463000203DAE55545546059E4F5A753E6FD0563
:1004730057E55770020556E4F558752BFF752C0B9D
:10048300752D1285562E85572F8550308551318510
:100493004E32854F33854C34854D35FB7A00795880
:1004A3001200D27B007A007958E55775F00AA4242C
:1004B30019F52C7D141209E4E4F554F555D2AF0275
:1004C30003DAE54B454A70030203DA756A00756B7C
:1004D30023AE56AF577C007D0A120622EF2424FF79
:1004E300E43EFEC3E56B9FEE6480F8E56A648098A2
:1004F30050187BFF7A0B792AAD6B120911740A2508
:100503006BF56BE4356AF56A80C7E4F54AF54BF59C
:1005130056F5570203DA8F2F8D308B31AB32AA3366
:10052300A9341205DC70030205DBF535C36480943E
:10053300A04009D3E535648094FE4003753520E57A
:1005430030D394784002807CAF35EF3395E0FE756D
:10055300F064E531A42FF582E5F03EF583E58224CE
:100563009EF582E583340CF583E493F9E5301313A8
:1005730013541F252FFDF8C000E6FA08E6FBE5300B
:100583005407FCE47EFFA804088005CEC313CE13F2
:10059300D8F9F4FFEEF45AFEEB5FD000A60608F696
:1005A300A805C000E6FA08E6FBE9FEE4A804088013
:1005B30005CEC313CE13D8F9FFEA4EFEEB4FD0009E
:1005C300A60608F674012534F534E43533F533749F
:1005D300062530F53002051F22BB010689828A8376
:1005E300E0225002E722BBFE02E32289828A83E4EF
:1005F3009322BB010CE58229F582E5833AF583E07A
:10060300225006E92582F8E622BBFE06E92582F898
:10061300E222E58229F582E5833AF583E49322EF2A
:100623008DF0A4A8F0CF8CF0A428CE8DF0A42EFEDC
:1006330022EB9FF5F0EA9E42F0E99D42F0E89C45EB
:10064300F022BB010689828A83F0225002F722BB83
:10065300FE01F322FAE6FB0808E6F925F0F618E6B0
:10066300CA3AF622D083D082F8E4937012740193CD
:10067300700DA3A393F8740193F5828883E47374D4
:1006830002936860EFA3A3A380DFC0E0C0F0C08340
:10069300C082C0D075D000C000C001C002C003C07A
:1006A30004C005C006C00775A720E5F854F0F4445C
:1006B3000F52F8AF9BEF30E34DE5086031E5A12021
:1006C300E02C300A13850C82850B83E5A3F0050C1F
:1006D300E50C7007050B800385A327D5080D300CA7
:1006E30005300902D2FA120C25800385080AE509B0
:1006F300601430F911300B09A80DE2F5A3050D8044
:100703000375A3001509D007D006D005D004D00384
:10071300D002D001D000D0D0D082D083D0F0D0E0AE
:1007230032787FE4F6D8FD75818F02076B0203D21E
:10073300E493A3F8E493A34003F68001F208DFF403
:100743008029E493A3F85407240CC8C333C4540F7B
:100753004420C8834004F456800146F6DFE4800B4E
:1007630001020408102040809007B0E47E019360EA
:10077300BCA3FF543F30E509541FFEE493A360017B
:100783000ECF54C025E060A840B8E493A3FAE493E5
:10079300A3F8E493A3C8C582C8CAC583CAF0A3C893
:1007A300C582C8CAC583CADFE9DEE780BE020E0080
:1007B3000001100001110002120000C109C10CC1A7
:1007C3000DC10AC10B010800010900010A00010D56
:1007D30000020B0000107000000000000000000089
:1007E3000000000000000002540000024C00000260
:1007F3004E000002500000024A0000026C0000029A
:1008030052000102560000026E000000C0E0C0F07A
:10081300C083C082C0D075D000C000C001C002C078
:1008230003C004C005C006C00753C87F53C8FBE517
:1008330010B401127510027F008511267B02E4FDBE
:10084300FC12086E800AE510B40305C2A6751000F9
:10085300D007D006D005D004D003D002D001D000F9
:10086300D0D0D082D083D0F0D0E032852608852640
:100873000985260A8F0D8C0B8D0CEB13920AEBA2C4
:10088300E1920BAFA775A720200D03120C39439AF1
:100893000453F80F539BEF439A08300C05300902B9
:1008A300C2FA30F915E5096011300B09A80DE2F51C
:1008B300A3050D8003E4F5A315098FA722C0E0204B
:1008C300821C200F46E56D456C7009F56C756D0152
:1008D300D20F8037756C00756D00D20F802D208389
:1008E30026200E1FE56D456C7013F54CF54DF54E46
:1008F300F54FF550F551F54A754B018006755400D7
:10090300755501D20E8004C20FC20ED0E0328D2B7A
:100913008B288A29892A120B7E8F2DE4F52C7F7070
:10092300E4FBFD12000EC007C37480952DFFE49411
:1009330000C313EF13FD852832852933852A34D06C
:1009430007AB2C120519E52C252BFF7B007A0079C8
:1009530070120961052CE52CC3940840C1228F2F26
:100963008B308A3189327F80120BA38F33E52F04BA
:10097300FF1200468F34E4FFAB30AA31A9328F82D5
:100983007583001205F5FE74352FF8A6060FBF1008
:10099300E7E4F545F546FB7A0079337D140209A3B4
:1009A3008B478A488949E51070FC7510018D11E465
:1009B300FFEFC39D5018AB47AA48A9498F8275839F
:1009C300001205F5FE74002FF8EEF20F80E3AFA7D7
:1009D300E4F5A775CFFF75CEF4D2A643C8048FA75D
:1009E300228D2B8B288A29892A120B7E8F2EE4F5E0
:1009F3002D7F70E4FBFD12000E8528328529338597
:100A03002A34AB2DAD2B120519E52D252CFF7B00C8
:100A13007A007970120961052DE52DC3940840D140
:100A2300228F298D2AE52A6005752AFF8003E4F5C4
:100A33002A7F80120BA38F2BE52904FF1200468F18
:100A43002CE4FF742D2FF8A62A0FBF10F6E4F53D12
:100A5300F53EFB7A00792B7D140209A3C0E0C0D0D8
:100A630075D000C000C005C007755200755301C2A0
:100A73008C758CEC758A107F64120BC4D28CE56D77
:100A8300254DF54DE56C354CF54CD007D005D00020
:100A9300D0D0D0E03285A728120C6A120C88120C31
:100AA30092120CBA120C74120C9C120C5A120BE216
:100AB300120C7E12002E120CA5120CAC120CB312E7
:100AC30000361200038528A722C2A6D2B4120C1145
:100AD3007BFF7A0B792BE4F52CFD1209E47BFF7A7B
:100AE3000B7941752C08E4FD1209E47DFF7F1F1289
:100AF3000A247DFF7F11020A244C4150202020202C
:100B0300253032643A253032642C25303264002596
:100B13003032642020202020253032643A253032C0
:100B2300642C253032640000204C69616F204875C5
:100B330020202020202020454345323531002059F4
:100B430076657474652057616E6720202020546990
:100B53006D657200EFB40A07740D120B62740A30EC
:100B63009811A899B8130CC2983098FDA899C29807
:100B7300B811F63099FDC299F599228B2F8A3089E5
:100B830031E4FFAB2FAA30A931AE070F8E827583F4
:100B9300001205F570ED1FEF75F006A42402FF2285
:100BA3008F47120BFBC3EF950FFDEE950EFCD3EDB4
:100BB30094C8EC940040074347408E0E8F0FAF4715
:100BC30022E4F568F569EFFDC3E5699D7480F86576
:100BD3006898500A0569E56970EC056880E822E5C4
:100BE3009154045391FB7595F87594067593F875B4
:100BF3009206439104429122AFA775A71053E67F53
:100C0300AD13AC1243E6808FA7AE04AF0522E4F523
:100C130028E4FDAF28120A240528E528C394804060
:100C2300F022751003AFA7E4F5A775CFFF75CEFCCF
:100C330043C8048FA722E5A1A2E6920CE5F8540C61
:100C430024FF9209D20D22C0E053917F0513E513CF
:100C530070020512D0E032AF885388AFEF5440FEE4
:100C6300EF54104E428822E4F5A77597DE7597ADD1
:100C73002275E34075E10275E20322758E0A7589D8
:100C8300214388102275A44075D43F75FE0C22754C
:100C9300A57375F27F75D5FE22E4F5A9E5A930E7C2
:100CA300FB2253F77F75DA4A2253F77F75DB4A221B
:100CB30053F77F75DC4A2275A6402200205050204E
:100CC300C060601040000000000000702070F81049
:100CD300F830F870700000080080707070F070E0F9
:100CE300F8F8708870388880888870F070F078F829
:100CF3008888888888F87000702000400080000889
:100D030000300080201080600000000000000040E0
:100D13000000000000003020600000000000000020
:100D230020505078C8902020202020000000008808
:100D33006088103080400888886060100040880810
:100D4300888888908080888820109080D8888888B8
:100D53008888802088888888880840001050002070
:100D63000080000800487880000080200000000018
:100D73000000004000000000000040201040000080
:100D8300000000002050F88010A0404010A8200070
:100D93000000089820082050F080108888606020A8
:100DA300F820080888888088808080882010A080A8
:100DB300A8C88888888880208888885088104080C0
:100DC3001088001070B07068704088B06030902058
:100DD300D0B070F068B070E08888888888F84020C8
:100DE30010A80000000000002000507020400040C8
:100DF3001070F800F80010A82010109008F0207070
:100E0300780000400010106888F08088F0F0B8F88F
:100E13002010C080A8A888F088F070208888A820B7
:100E2300502040401000000008C8809888E088C81F
:100E33002010A020A8C8888898C880408888885037
:100E43008810802008100000000000000000F8084F
:100E530040A8004010A82060000020C8202008F807
:100E63000888408808606020F82020A8F8888088D7
:100E7300808088882010A08088988880A8A0082077
:100E83008888A8502040402010000000788880887F
:100E9300F84078882010C020A88888F078807040B7
:100EA3008888A8207820402010000000000000005F
:100EB300000050F0989000202020202000604088FF
:100EC300204088108888408810602010004000A8C7
:100ED30088888890808088882090908088888880FF
:100EE300909008208850A8882080401010000000AF
:100EF30088888888804008882090A02088888880F7
:100F0300088008489850A85008404020100000006E
:100F1300000000002000502018680010400000402E
:100F23000060807070F8701070704070600040084E
:100F33000080207088F070E0F8807088706088F816
:100F4300888870806888F0207020508820F87008A6
:100F53007000FC0078F0707870407088706090705A
:100F6300888870800880F0306820508870F83020BE
:100F7300600000000000000000000000000000000E
:100F8300000000000000000000000000000000005E
:100F9300000000000000000000000000000000004E
:100FA300000000000000000000000000000000003E
:100FB300000000000000000000000000000000002E
:100FC300000000000000000000000000000000001E
:0B0FD300000000000000000000000013
:00000001FF
