:020000040000FA
:0A00000002072775E68275A8622248
:10000B00020AAEED131313541FFEEB131313541FFD
:0F001B00FDEEC39D5008EF2EF8E4F60E80EC22A8
:10002B00020812C2DED2DE2202069075A20B43A199
:10003B004053F8F343F801220208C3EF540FC454A2
:10004B00F0FEEF54F0C4540F4EFF543325E025E07F
:10005B00FEEF54CC1313543F4EFF545525E0FEEFE7
:07006B0054AAC3134EFF224B
:10007300020C9AE537242BF8E60537227828300757
:1000830002782BE475F00112065A0205DF2000EB1B
:100093007F2ED2008018EF540F2490D43440D4FF25
:1000A30030040BEF24BFB41A0050032461FFE5387A
:1000B30060021538053BE53B7002053A30070D78C1
:1000C30028E475F00112065AEF020648020BA674E3
:1000D30003D2078003E4C207F5378B288A29892ACC
:1000E300E4F538F53AF53BE53860077F201200B1B7
:1000F30080F57539FFC201C200C202C203C205C244
:1001030006C20812007FFF700D3007057F00120042
:10011300C2AF3BAE3A22B4255FC2D5C20412007F00
:10012300FF24D0B40A00501A75F00A783830D50588
:1001330008B6FF0106C6A426F620D5047002D20332
:1001430080D924CFB41A00EF5004C2E5D2040202CE
:10015300C2D20180C6D20080C0D20280BCD2D58078
:10016300BAD20580B47F201200B12002077401B512
:10017300380040F1120076FF1200B10200EAD20803
:10018300D2068095120076FB120076FA120076F9F9
:100193004A4B700679937A037BFF20022EE5386081
:1001A3002A7E008E827583001205F860060EEE65C6
:1001B3003970F0C2D5EBC0E0EAC0E0E9C0E0EE126E
:1001C3000309D0E0F9D0E0FAD0E0FB1205DFFF60CD
:1001D300AAEBC0E0EAC0E0E9C0E01200B1D0E0243D
:1001E30001F9D0E03400FAD0E0FBE5390460DCD556
:1001F30039D980877BFF7A037905D202809C7910F5
:1002030080027908C206C2088008D2D5790A800420
:10021300790AC2D5E539047002F539E4FAFDFEFF27
:10022300120076FC7B08200113120076FD7B103050
:10023300000A120076FE120076FF7B20EC3382D593
:1002430092D55013C3E43000069FFFE49EFEE420E2
:1002530001039DFDE49CFCE4CBF8C201EC700CCFE0
:10026300CECDCCE824F8F870F38017C3EF33FFEE5C
:1002730033FEED33FDEC33FCEB33FB994002FB0F14
:10028300D8E9EB300105F8D0E0C448B201C0E00A78
:10029300EC4D4E4F78207B0070C2EAB5390040BC6C
:1002A300C0E012030BD0F0D0E0200104C4C0E0C4CE
:1002B300B201C0F012009AD0F0D5F0EB0200EA12BE
:1002C300066A01875302015801584C015442020542
:1002D3004F020D44020D49016D4302135501F746C8
:1002E30001F74501F74703B350015C2D01602E016F
:1002F300832B016423018120039C2A011C480000F5
:10030300017B3F3F3F00790AA2D520031430050942
:10031300B910020404B9080104A2D5200602500151
:10032300042002689202B538005034C0E07F2030C8
:1003330003197F30A20272067205500F120362C2C4
:1003430002C206C205C2087F30800F300503E9C030
:10035300E01200B1300503D0E0F9D0E0B538CC307D
:1003630005177F30B9100C1200B17F583004077F96
:10037300788003B908031200B13002057F2D020013
:10038300B17F202008F87F2B2006F322920280CF32
:10039300286E756C6C2900D2011200763001F8C208
:1003A30001783830D50108F602011C2D5043495815
:1003B3001200762403B405004001E49003AE9312C7
:1003C30000A2743A1200A2D2037538040202011289
:1003D3000AE7120973D2AF120B1BE55345527003A0
:1003E300020469E4F558C3E54D9464E54C648094D4
:1003F30080400D054FE54F7002054EE4F54CF54D79
:10040300E54F643C454E700D0551E55170020550B2
:10041300E4F54EF54F752BFF752C0B752D4B855061
:100423002E85512F854E30854F31854C32854D3386
:100433007B007A0079581200D27B007A00795875D4
:100443002C157D14120A33E4F552F553E56F64025B
:10045300456E700743E602F56EF56F056FE56F7045
:1004630002056E0203DDE55545546059E4F5A753D3
:10047300E6FD0557E55770020556E4F558752BFF61
:10048300752C0B752D6185562E85572F855030851C
:100493005131854E32854F33854C34854D35FB7A4A
:1004A3000079581200D27B007A007958E55775F02D
:1004B3000AA42419F52C7D14120A33E4F554F555D6
:1004C300D2AF0203DDE54B454A70030203DD756AD3
:1004D30000756B23AE56AF577C007D0A120625EFDD
:1004E3002424FFE43EFEC3E56B9FEE6480F8E56AD7
:1004F30064809850187BFF7A0B7979AD6B120914DD
:10050300740A256BF56BE4356AF56A80C7E4F54A2E
:10051300F54BF556F5570203DD8F2F8D308B31AB3D
:1005230032AA33A9341205DF70030205DEF535C3A1
:10053300648094A04009D3E535648094FE4003753C
:100543003520E530D394784002807CAF35EF339586
:10055300E0FE75F064E531A42FF582E5F03EF58306
:10056300E58224EEF582E583340CF583E493F9E523
:1005730030131313541F252FFDF8C000E6FA08E6C5
:10058300FBE5305407FCE47EFFA804088005CEC3D6
:1005930013CE13D8F9F4FFEEF45AFEEB5FD000A6A6
:1005A3000608F6A805C000E6FA08E6FBE9FEE4A89B
:1005B30004088005CEC313CE13D8F9FFEA4EFEEB31
:1005C3004FD000A60608F674012534F534E435331C
:1005D300F53374062530F53002052222BB01068966
:1005E300828A83E0225002E722BBFE02E322898251
:1005F3008A83E49322BB010CE58229F582E5833AE1
:10060300F583E0225006E92582F8E622BBFE06E9DF
:100613002582F8E222E58229F582E5833AF583E42F
:100623009322EF8DF0A4A8F0CF8CF0A428CE8DF008
:10063300A42EFE22EB9FF5F0EA9E42F0E99D42F0E4
:10064300E89C45F022BB010689828A83F02250028E
:10065300F722BBFE01F322FAE6FB0808E6F925F0D0
:10066300F618E6CA3AF622D083D082F8E4937012E1
:10067300740193700DA3A393F8740193F582888397
:10068300E4737402936860EFA3A3A380DFC0E0C0A8
:10069300F0C083C082C0D075D000C000C001C002CA
:1006A300C003C004C005C006C00775A720E5F85401
:1006B300F0F4440F52F8AF9BEF30E34DE50860319F
:1006C300E5A120E02C300A13850C82850B83E5A37A
:1006D300F0050CE50C7007050B800385A327D508EF
:1006E3000D300C05300902D2FA120C75800385080F
:1006F3000AE509601430F911300B09A80DE2F5A3DE
:10070300050D800375A3001509D007D006D005D0C9
:1007130004D003D002D001D000D0D0D082D083D077
:10072300F0D0E032787FE4F6D8FD75818F02076E52
:100733000203D2E493A3F8E493A34003F68001F207
:1007430008DFF48029E493A3F85407240CC8C333C7
:10075300C4540F4420C8834004F456800146F6DF96
:10076300E4800B01020408102040809007B3E47E6C
:10077300019360BCA3FF543F30E509541FFEE4938B
:10078300A360010ECF54C025E060A840B8E493A352
:10079300FAE493A3F8E493A3C8C582C8CAC583CA7D
:1007A300F0A3C8C582C8CAC583CADFE9DEE780BE35
:1007B300020E000001100001110002120000C10925
:1007C300C10CC10DC10AC10B010800010900010AD6
:1007D30000010D00020B000010700000000000007B
:1007E3000000000000000000000002540000024C62
:1007F3000000024E000002500000024A0000026C9A
:1008030000000252000102560000026E000000C008
:10081300E0C0F0C083C082C0D075D000C000C0016A
:10082300C002C003C004C005C006C00753C87F533D
:10083300C8FBE510B401127510027F008511267BF9
:1008430002E4FDFC120871800AE510B40305C2A698
:10085300751000D007D006D005D004D003D002D045
:1008630001D000D0D0D082D083D0F0D0E032852622
:100873000885260985260A8F0D8C0B8D0CEB1392A8
:100883000AEBA2E1920BAFA775A720200D03120C70
:1008930089439A0453F80F539BEF439A08300C058E
:1008A300300902C2FA30F915E5096011300B09A8C5
:1008B3000DE2F5A3050D8003E4F5A315098FA72227
:1008C300C0E020821C200F46E56D456C7009F56C75
:1008D300756D01D20F8037756C00756D00D20F8076
:1008E3002D208326200E1FE56D456C7013F54CF506
:1008F3004DF54EF54FF550F551F54A754B01800610
:10090300755400755501D20E8004C20FC20ED0E09B
:10091300328D2B8B288A29892A120BCD8F2DE4F552
:100923002C7F70E4FBFD12000EC007C37480952D6D
:10093300FFE49400C313EF13FD8528328529338523
:100943002A34D007AB2C12051CE52C252BFF7B008A
:100953007A0079701209B0052CE52CC3940840C1C4
:1009630022800D7D647E647F63DFFEDEFADDF62286
:1009730043D50275E34043A50243A680C2A71209EB
:1009830066C296120966B296120966C29612096683
:10099300B296120966C296C294120966B296B294CE
:1009A300120966C294120966B2941209668F2F8BDC
:1009B300308A3189327F80120BF28F33E52F04FFA7
:1009C3001200468F34E4FFAB30AA31A9328F82750F
:1009D30083001205F8FE74352FF8A6060FBF10E743
:1009E300E4F545F546FB7A0079337D140209F28B71
:1009F300478A488949E51070FC7510018D11E4FFA1
:100A0300EFC39D5018AB47AA48A9498F827583004D
:100A13001205F8FE74002FF8EEF20F80E3AFA7E49F
:100A2300F5A775CFFF75CEF4D2A643C8048FA722CE
:100A33008D2B8B288A29892A120BCD8F2EE4F52D35
:100A43007F70E4FBFD12000E852832852933852A49
:100A530034AB2DAD2B12051CE52D252CFF7B007A25
:100A63000079701209B0052DE52DC3940840D122F9
:100A73008F298D2AE52A6005752AFF8003E4F52A6C
:100A83007F80120BF28F2BE52904FF1200468F2C77
:100A9300E4FF742D2FF8A62A0FBF10F6E4F53DF5F9
:100AA3003EFB7A00792B7D140209F2C0E0C0D075B9
:100AB300D000C000C005C007755200755301C28C39
:100AC300758CEC758A107F64120C13D28CE56D253E
:100AD3004DF54DE56C354CF54CD007D005D000D025
:100AE300D0D0E03285A728120CBA120CD8120CE22F
:100AF300120D0A120CC4120CEC120CAA120C3212B4
:100B03000CCE12002E120CF5120CFC120D03120067
:100B1300361200038528A722C2A6D2B4120C617B29
:100B2300FF7A0B797AE4F52CFD120A337BFF7A0BFB
:100B33007990752C08E4FD120A337DFF7F1F120A9A
:100B4300737DFF7F11020A734C4150202020202522
:100B53003032643A253032642C253032640025303B
:100B630032642020202020253032643A253032643C
:100B73002C253032640000204C69616F20487520B9
:100B8300202020202020454345323531002059764E
:100B9300657474652057616E672020202054696D49
:100BA300657200EFB40A07740D120BB1740A309822
:100BB30011A899B8130CC2983098FDA899C298B897
:100BC30011F63099FDC299F599228B2F8A3089311C
:100BD300E4FFAB2FAA30A931AE070F8E82758300D5
:100BE3001205F870ED1FEF75F006A42402FF228FA3
:100BF30047120C4BC3EF950FFDEE950EFCD3ED940E
:100C0300C8EC940040074347408E0E8F0FAF472236
:100C1300E4F568F569EFFDC3E5699D7480F86568DF
:100C230098500B000569E56970EB056880E722E5DC
:100C33009154045391FB7595F87594067593F87563
:100C43009206439104429122AFA775A71053E67F02
:100C5300AD13AC1243E6808FA7AE04AF0522E4F5D3
:100C630028E4FDAF28120A730528E528C3948040C1
:100C7300F022751003AFA7E4F5A775CFFF75CEFC7F
:100C830043C8048FA722E5A1A2E6920CE5F8540C11
:100C930024FF9209D20D22C0E053917F0513E5137F
:100CA30070020512D0E032AF885388AFEF5440FE94
:100CB300EF54104E428822E4F5A77597DE7597AD81
:100CC3002275E34075E10275E20322758E0A758988
:100CD300214388102275A44075D43F75FE0C2275FC
:100CE300A57375F27F75D5FE22E4F5A9E5A930E772
:100CF300FB2253F77F75DA4A2253F77F75DB4A22CB
:100D030053F77F75DC4A2275A640220020505020FD
:100D1300C060601040000000000000702070F810F8
:100D2300F830F870700000080080707070F070E0A8
:100D3300F8F8708870388880888870F070F078F8D8
:100D43008888888888F87000702000400080000838
:100D53000030008020108060000000000000004090
:100D630000000000000030206000000000000000D0
:100D730020505078C89020202020200000000088B8
:100D830060881030804008888860601000408808C0
:100D9300888888908080888820109080D888888868
:100DA3008888802088888888880840001050002020
:100DB30000800008004878800000802000000000C8
:100DC3000000004000000000000040201040000030
:100DD300000000002050F88010A0404010A8200020
:100DE3000000089820082050F08010888860602058
:100DF300F820080888888088808080882010A08058
:100E0300A8C888888888802088888850881040806F
:100E13001088001070B07068704088B06030902007
:100E2300D0B070F068B070E08888888888F8402077
:100E330010A8000000000000200050702040004077
:100E43001070F800F80010A82010109008F020701F
:100E5300780000400010106888F08088F0F0B8F83F
:100E63002010C080A8A888F088F070208888A82067
:100E7300502040401000000008C8809888E088C8CF
:100E83002010A020A8C8888898C8804088888850E7
:100E93008810802008100000000000000000F808FF
:100EA30040A8004010A82060000020C8202008F8B7
:100EB3000888408808606020F82020A8F888808887
:100EC300808088882010A08088988880A8A0082027
:100ED3008888A8502040402010000000788880882F
:100EE300F84078882010C020A88888F07880704067
:100EF3008888A8207820402010000000000000000F
:100F0300000050F0989000202020202000604088AE
:100F1300204088108888408810602010004000A876
:100F230088888890808088882090908088888880AE
:100F3300909008208850A88820804010100000005E
:100F430088888888804008882090A02088888880A6
:100F5300088008489850A85008404020100000001E
:100F630000000000200050201868001040000040DE
:100F73000060807070F870107070407060004008FE
:100F83000080207088F070E0F8807088706088F8C6
:100F9300888870806888F0207020508820F8700856
:100FA3007000FC0078F0707870407088706090700A
:100FB300888870800880F0306820508870F830206E
:100FC30060000000000000000000000000000000BE
:100FD300000000000000000000000000000000000E
:100FE30000000000000000000000000000000000FE
:100FF30000000000000000000000000000000000EE
:1010030000000000000000000000000000000000DD
:1010130000000000000000000000000000000000CD
:0B1023000000000000000000000000C2
:00000001FF
